:020000040800F2
:10000000D006002095040008990200089B02000811
:100010009F020008A3020008A702000800000000D9
:10002000000000000000000000000000AB0200081B
:10003000AD02000800000000AF020008B102000895
:10004000AF040008AF040008AF040008AF040008C4
:10005000AF040008AF040008AF040008AF040008B4
:10006000AF040008AF040008AF040008AF040008A4
:10007000AF040008AF040008AF040008AF04000894
:10008000AF040008AF040008AF040008AF04000884
:10009000AF040008AF040008AF040008918700080F
:1000A000AF040008AF040008AF040008AF04000864
:1000B000AF040008AF040008AF040008AF04000854
:1000C000AF040008AF040008AF040008AF04000844
:1000D000AF040008DB8D0008D1210008B98F0008AB
:1000E00093870008AF040008AF040008AF040008BD
:1000F000AF040008AF040008AF040008AF04000814
:10010000AF040008AF040008AF040008AF04000803
:1001100011930008AF040008AF040008AF04000802
:10012000AF040008AF040008AF040008AF040008E3
:1001300000F002F800F03AF80AA090E8000C8244BF
:100140008344AAF10107DA4501D100F02FF8AFF29C
:10015000090EBAE80F0013F0010F18BFFB1A43F0A5
:100160000103184740E4000060E40000103A24BF97
:1001700078C878C1FAD8520724BF30C830C144BF0C
:1001800004680C607047000000230024002500264E
:10019000103A28BF78C1FBD8520728BF30C148BFEA
:1001A0000B6070471FB51FBD10B510BD0DF045FEAB
:1001B0001146FFF7F7FF00F009F80DF063FE03B4F6
:1001C000FFF7F2FF03BC08F0ADFD00004FF4A060A4
:1001D00000F080F901F00CFF4FF4E13001F0ABFFCB
:1001E00002F078F84FF4165008F0ABFD08F0AEFCC2
:1001F0004FF4165008F08EFE4FF4165009F032F806
:100200000020224908602249C1F89C015A2008F0C8
:1002100026FD5A2008F0FCFC282008F0D2FC2820FB
:1002200008F0A8FC40F2253001F01FFF0A2008F07A
:1002300016FD0A2008F0ECFC642008F0C2FC5020F7
:1002400008F098FC40F2253001F00FFF1DE040F669
:10025000B83001F00AFF0F48007810B902F03CF9FD
:1002600013E00C480078012802D10DF04AFA0CE0A6
:1002700008480078022802D10DF044FA05E005484C
:100280000078032801D10DF07EFAE0E798012242C0
:100290000000224204000020704700BFFEE700BFBC
:1002A000FEE700BFFEE700BFFEE7704770477047FC
:1002B000704700000CB50020019000906C48006869
:1002C00040F480306A49086000BF6948006800F463
:1002D000003000900198401C0190009818B90198D6
:1002E000B0F5A06FF1D16248006800F4003010B1A1
:1002F0000120009001E0002000900098012843D1E7
:100300005C48006840F010005A49086008460068E0
:1003100020F0030008600846006840F00200086012
:10032000534840685249486008464068486008465B
:10033000406840F4806048600846406820F47C10C3
:1003400048600846406840F4E81048600846006885
:1003500040F08070086000BF4548006800F0007001
:100360000028F9D04248406820F003004049486026
:100370000846406840F00200486000BF3C484068C2
:1003800000F00C000828F9D10CBD10B5FFF792FF62
:1003900010BD10B53648006840F0010034490860CF
:1003A00008464068344908403149486008460068BA
:1003B000324908402E4908600846006820F4802031
:1003C00008600846406820F4FE0048604FF41F00B3
:1003D0008860FFF7DAFF4FF000602949086010BD20
:1003E00010B5002100200022214B5B6803F00C01B6
:1003F00021B1042906D0082928D107E0214B224C3D
:10040000236027E01F4B204C236023E0184B5B68E0
:1004100003F47010164B5B6803F48032022303EB85
:10042000904022B9194B4343174C23600DE0104B09
:100430005B6803F4003323B1144B4343124C236035
:1004400003E0104B4343104C236003E00D4B0E4C74
:10045000236000BF00BF064B5B68C3F303130C4C63
:10046000E15C094B1B68CB40074C236010BD0000CA
:1004700000100240002002400000FFF8FFFFF6FEDF
:1004800008ED00E000127A000800002000093D009D
:100490000C0000200948804709480047FEE7FEE7B6
:1004A000FEE7FEE7FEE7FEE7FEE7FEE7FEE7FEE724
:1004B00004480549054A064B7047000093030008AD
:1004C00031010008D0000020D0060020D00200201A
:1004D000D002002031490143314A1160704770B5A4
:1004E000002100230F22C47804B32D4C246804F4A7
:1004F000E064C4F5E064210AC1F10403CA40447811
:1005000004FA03F18478144021430901254C06784C
:10051000A155047804F01F050124AC4005786D1145
:10052000AD0005F1E025C5F8004109E0047804F0CC
:100530001F050124AC401C4D0678761145F8264075
:1005400070BD1A4A0A400243154B1B1F1A607047C0
:1005500039B1134A121D12680243114B1B1D1A6058
:1005600006E00F4A121D126882430D4B1B1D1A60D4
:100570007047042808D14FF0E021096941F00401D7
:100580004FF0E022116107E04FF0E021096921F00E
:1005900004014FF0E0221161704700000000FA05ED
:1005A0000CED00E000E400E080E100E080FFFF1FD0
:1005B000002044490860091D0860091D0860091DE4
:1005C000086041483F4914310860704700213D49A7
:1005D0008279002A3AD00A46126803689A430B4689
:1005E0001A600A1D126803689A430B1D1A6002798B
:1005F00011440A6803681A430A60324A08321268D2
:1006000003689A432F4B08331A601A1D1268036857
:100610009A432C4B0C331A604279102A0ED11A1FC0
:10062000126803681A43274B08331A601A1D1268B0
:1006300003681A43234B0C331A600DE021494279B9
:1006400011440A6803681A430A6005E002791144FC
:100650000A6803689A430A607047002101600171CB
:100660000C214171002181717047164910310968D0
:100670000143144A10321160704701460020114AAC
:10068000143212680A400AB1012000E000207047CD
:100690000C49143108607047014600200022094BC4
:1006A0001B6803EA0102074B14331B680B4013B1AC
:1006B0000AB1012000E000207047024914310860AF
:1006C0007047000000040140FFFF0F0010B5044612
:1006D000CC48844208D10121042000F02DFB0021E8
:1006E000042000F029FB46E0C748844208D10121DC
:1006F000082000F021FB0021082000F01DFB3AE05B
:10070000C248844208D10121102000F015FB0021CD
:10071000102000F011FB2EE0BD48844208D10121D9
:10072000202000F009FB0021202000F005FB22E042
:10073000B848844208D10121402000F0FDFA002190
:10074000402000F0F9FA16E0B348844208D10121B4
:10075000802000F0F1FA0021802000F0EDFA0AE09C
:10076000AE48844207D10121801500F0E5FA00214E
:10077000A01500F0E1FA10BD10B50121084600F007
:10078000DBFA0021012000F0D7FA10BD2DE9F0417D
:10079000024600250026002000230024002791F8AF
:1007A00003C00CF00F0591F803C00CF0100CBCF165
:1007B000000F03D091F802C04CEA050591F800C083
:1007C000BCF1000F31D0146800202BE04FF0010C79
:1007D0000CFA00F3B1F800C00CEA03069E4220D1E7
:1007E00083004FF00F0C0CFA03F7BC4305FA03FC2F
:1007F0004CEA040491F803C0BCF1280F06D14FF075
:10080000010C0CFA00FCC2F814C00AE091F803C015
:10081000BCF1480F05D14FF0010C0CFA00FCC2F8F6
:1008200010C0401C0828D1D31460B1F800C0BCF13E
:10083000FF0F34DD546800202EE000F1080C4FF06B
:10084000010808FA0CF3B1F800C00CEA03069E4256
:1008500021D183004FF00F0C0CFA03F7BC4305FACB
:1008600003FC4CEA040491F803C0BCF1280F05D145
:1008700000F1080C08FA0CF8C2F8148091F803C0D3
:10088000BCF1480F07D100F1080C4FF0010808FA3D
:100890000CF8C2F81080401C0828CED35460BDE884
:1008A000F0814FF6FF710180022181700421C17037
:1008B00070470246002093680B400BB1012000E016
:1008C000002070470146886880B2704702460020C9
:1008D000D3680B400BB1012000E0002070470146B7
:1008E000C86880B2704701617047416170470AB1C2
:1008F000016100E041617047C16070474FF4803290
:100900000A4382618161826182698269704702461D
:100910000020434B18684FF68073184040EA0210DD
:1009200008433F4B186070473E49C8617047F0B5B7
:100930000A46002300240021002500F00046B6F1FD
:10094000004F02D1364EF16901E0354E7168C0F3B7
:10095000034583B200F44016B6F5401F08D121F0DC
:1009600070612F4E766826F070662D4F7E6012E023
:1009700000F48016B6F5801F06D1032606FA05F4AA
:10098000A14341F0706106E0460D360103FA06F618
:10099000B14341F0706122B1460D360103FA06F60B
:1009A000314300F00046B6F1004F02D11C4EF16118
:1009B00001E01B4E7160F0BD30B500228B071C0FAB
:1009C0000F2303FA04F2164B08338C1053F824302B
:1009D0009343134C08348D1044F8253023468C1073
:1009E00053F824308C07240F00FA04F423430C4CF2
:1009F00008348D1044F8253030BD0A49DC310860D8
:100A00007047000000080140000C01400010014048
:100A10000014014000180140001C0140002001406A
:100A20000000014000002042DF48006840F0010063
:100A3000DD49086008464068DC490840DA494860FA
:100A400008460068DA490840D74908600846006847
:100A500020F4802008600846406820F4FE004860CA
:100A60004FF41F0088607047CF49096821F4803136
:100A7000CD4A11601146096821F480211160B0F55A
:100A8000803F03D0B0F5802F0ED106E0C64909683B
:100A900041F48031C44A116007E0C349096841F458
:100AA000A021C14A116000E000BF00BF704710B52F
:100AB00001460022002300204A11012A02D1BA4C2B
:100AC000236806E0022A02D1B74C236A01E0B64C43
:100AD000636A01F01F02012494401C400CB1012004
:100AE00000E0002010BD38B5002000900024002553
:100AF00000BF3120FFF7DBFF05460098401C009047
:100B00000098B0F5A06F01D0002DF2D03120FFF792
:100B1000CEFF08B1012400E00024204638BD014684
:100B20000020A14A106820F0F80040EAC1001060DF
:100B30007047A04908607047024600209A4B5868E9
:100B400020F47C1042EA01031843974B5860704729
:100B500098490866704701460020934A506820F083
:100B600003000843506070478F48406800F00C0055
:100B70007047014600208C4A506820F0F00008437E
:100B80005060704701460020874A506820F4E060BA
:100B900008435060704701460020834A506820F4A3
:100BA000605040EAC1005060704729B17E4A527AD5
:100BB00002437D4B5A7204E07B4A527A82437A4B5D
:100BC0005A7270477B49D83108607047014600204F
:100BD000754A506820F44040084350607047002137
:100BE000714A20321170704A82F82010012802D018
:100BF00004280AD104E001216B4A2032117005E07B
:100C00000521694A2032117000E000BF00BF704723
:100C10006949086070476449096A0143624A116280
:100C20007047654944390860704730B5002100229B
:100C3000002400235C4D6D6805F00C0121B10429EE
:100C400005D0082923D105E05C4D056022E05B4D0D
:100C500005601FE0544D6D6805F47012524D6D68CB
:100C600005F48034022505EB92421CB9544D5543DE
:100C700005600BE04C4D6D6805F400351DB1504D1D
:100C80005543056002E04D4D5543056002E04B4D74
:100C9000056000BF00BF444D6D6805F0F001090913
:100CA000484D6B5C0568DD4045603F4D6D6805F45F
:100CB000E061090A434D6B5C4568DD4085603A4D53
:100CC0006D6805F46051C90A3E4D6B5C4568DD40B6
:100CD000C560354D6D6805F44041890B3A4D6B5C3C
:100CE000C568B5FBF3F5056130BD29B12E4A5269DF
:100CF00002432D4B5A6104E02B4A526982432A4B2E
:100D00005A61704729B1284A92690243264B9A6179
:100D100004E0254A92698243234B9A61704729B1C6
:100D2000214AD2690243204BDA6104E01E4AD269AB
:100D300082431D4BDA61704729B11B4AD2680243D6
:100D4000194BDA6004E0184AD2688243164BDA6025
:100D5000704729B1144A12690243134B1A6104E027
:100D6000114A12698243104B1A6170471249403987
:100D7000086070470F49C86470470B49C8717047D5
:100D80000948406A40F08070074948627047014650
:100D90000020054A92680A400AB1012000E00020C4
:100DA0007047014988727047001002400000FFF848
:100DB000FFFFF6FE000042428004424200127A0029
:100DC00000093D001C0000202C00002010B5044646
:100DD000FE48844208D10121C014FFF7ADFF002175
:100DE000E014FFF7A9FFC4E0B4F1804F08D101215E
:100DF0000846FFF7AEFF00210120FFF7AAFFB8E089
:100E0000F348844208D101210220FFF7A2FF00210C
:100E10000220FFF79EFFACE0EE48844208D101219A
:100E20000420FFF796FF00210420FFF792FFA0E0C7
:100E3000E948844208D101210820FFF78AFF0021F8
:100E40000820FFF786FF94E0E448844208D101219E
:100E50001020FFF77EFF00211020FFF77AFF88E0C7
:100E6000DF48844208D101212020FFF772FF0021D2
:100E70002020FFF76EFF7CE0DA48844208D1012190
:100E80004014FFF759FF00216014FFF755FF70E091
:100E9000D548844209D10121C804FFF74DFF002144
:100EA0004FF40020FFF748FF63E0D048844209D1A7
:100EB00001210805FFF740FF00214FF48010FFF7E4
:100EC0003BFF56E0CA48844209D101214805FFF79B
:100ED00033FF00214FF40010FFF72EFF49E0C54813
:100EE000844208D101214020FFF733FF0021402038
:100EF000FFF72FFF3DE0C048844208D10121802048
:100F0000FFF727FF00218020FFF723FF31E0BB48D8
:100F1000844208D101218015FFF71BFF0021A01595
:100F2000FFF717FF25E0B648844209D101210804E4
:100F3000FFF702FF00214FF48030FFF7FDFE18E0BD
:100F4000B048844209D101214804FFF7F5FE002191
:100F50004FF40030FFF7F0FE0BE0AB48844208D1BD
:100F600001218804FFF7E8FE00214FF48020FFF7FD
:100F7000E3FE10BD00220288944B98420ED0994B9C
:100F800098420BD0B0F1804F08D0914B984205D0D9
:100F9000904B984202D0904B984204D14FF68F73F9
:100FA0001A404B881A438D4B984207D08C4B98427D
:100FB00004D04FF6FF431A40CB881A4302808B8837
:100FC00083850B880385814B98420BD0854B9842D3
:100FD00008D08B4B984205D08A4B984202D08A4B5E
:100FE000984201D10B7A038601238382704770B542
:100FF000002400220023058C4FF6FE763540058440
:10100000028C8388048B4FF68F752C40B51E2C40C4
:101010000D882C43751E2A400D892A434D882A438A
:101020006A4DA8420BD06F4DA84208D0744DA8421B
:1010300005D0744DA84202D0734DA84213D14FF68B
:10104000F7752A404D892A434FF6FB752A408D8853
:101050002A434FF6FF652B404FF6FF552B408D89F5
:101060002B43CD892B4383800483CD8885860284DE
:1010700070BD70B5002400220023058C4FF6EF767A
:1010800035400584028C8388048B48F6FF752C401C
:101090004FF6FF452C400D884FF6FF7606EA0525F2
:1010A0002C434FF6DF752A400D8906EA05152A43C1
:1010B0004D8806EA05152A43444DA84202D0494D01
:1010C000A8421DD14FF67F752A404D894FF6FF7615
:1010D00006EA05152A434FF6BF752A408D8806EAB1
:1010E00005152A434FF6FF352B404FF2FF752B4075
:1010F0008D8906EA85052B43CD8906EA85052B43B4
:1011000083800483CD880587028470BD70B5002478
:1011100000220023058C4FF6FF6635400584028CC3
:101120008388848B4FF68F752C404FF6FC752C40CE
:101130000D882C434FF6FF552A400D894FF6FF7658
:1011400006EA05252A434D8806EA05252A431F4D50
:10115000A84202D0234DA8421DD14FF2FF752A406C
:101160004D894FF6FF7606EA05252A434FF6FF35EF
:101170002A408D8806EA05252A434EF6FF752B4046
:101180004DF6FF752B408D8906EA05152B43CD8959
:1011900006EA05152B4383808483CD8885870284E6
:1011A00070BD70B5002200230024058C4EF6FF763A
:1011B00035400584038C8488828B48F6FF752A406D
:1011C0004FF6FF452A400D8820E00000002C01402A
:1011D0000004004000080040000C004000100040E7
:1011E0000014004000340140004C01400050014018
:1011F0000054014000180040001C00400020004046
:101200000040014000440140004801404FF6FF7695
:1012100006EA05252A434DF6FF752B400D8906EA9F
:1012200005352B434D8806EA05352B43FA4DA84278
:1012300002D0FA4DA84208D14BF6FF752C408D899B
:101240004FF6FF7606EA85152C4384808283CD888D
:10125000A0F84050038470BD828B4FF2FF331A40D8
:101260008283828B4FF6FF7303EA01231A43828342
:101270007047F0B50C461546002200210026078C69
:101280004EF6FF7C07EA0C070784828B018C4FF631
:10129000FF7707EA043640F6FF473A404FF6FF77FC
:1012A00007EA05273A434FF6FF7707EA03373A4341
:1012B000D94FB8420ED0D94FB8420BD0B0F1804FC1
:1012C00008D0D74FB84205D0D64FB84202D0D64F3B
:1012D000B84206D14DF6FF77394046F4805739437E
:1012E00005E047F6FF57394044F48057394382837D
:1012F0000184F0BD828B4FF6F3731A408283828B98
:101300000A4382837047F0B50C461546002200213F
:101310000026078C4FF6FF6C07EA0C070784828BC8
:10132000018C4FF6FF7707EA04264FF60C773A4018
:101330004FF6FF7707EA03172F433A43B64FB842F9
:101340000ED0B64FB8420BD0B0F1804F08D0B44F9A
:10135000B84205D0B34FB84202D0B34FB84206D11D
:101360004FF6FF57394046F48077394305E04FF296
:10137000FF57394044F48077394382830184F0BDBC
:10138000028B4FF2FF331A400283028B4FF6FF733A
:1013900003EA01231A4302837047F0B50C46154651
:1013A000002200210026078C4FF6EF7C07EA0C078D
:1013B0000784028B018C4FF6FF7707EA041640F68C
:1013C000FF473A404FF6FF7707EA03373A434FF6B5
:1013D000FF7707EA05273A438F4FB8420ED08F4F69
:1013E000B8420BD0B0F1804F08D08D4FB84205D035
:1013F0008C4FB84202D08C4FB84206D14FF6DF77FF
:10140000394046F01007394305E04FF65F77394021
:1014100044F01007394302830184F0BD028B4FF67C
:10142000F3731A400283028B0A4302837047F0B5BC
:101430000C46154600220021068C4FF6FE773E40F2
:101440000684028B018C4FF60C7632407E1C06EA35
:1014500003162E433243704EB0420ED06F4EB04250
:101460000BD0B0F1804F08D06D4EB04205D06D4E1C
:10147000B04202D06C4EB04206D14FF6FD763140FC
:1014800044F00106314305E04FF6F576314044F073
:101490000106314302830184F0BD70B505460C4658
:1014A0005D4885420ED05D4885420BD0B5F1804F36
:1014B00008D05B48854205D05A48854202D05A4838
:1014C000854200D100E000BF208850B92389A2885E
:1014D00061882846FFF7ABFFE1882846FFF79EFFAB
:1014E00025E0208804280AD12389A288618828461B
:1014F000FFF753FFE1882846FFF742FF17E02088F7
:1015000008280AD12389A28861882846FFF7FBFEB4
:10151000E1882846FFF7EEFE09E02389A28861886A
:101520002846FFF7A6FEE1882846FFF795FE70BD26
:101530002DE9F04105460C4600260127608808B9D0
:10154000022600E00026A088012801D1022700E041
:1015500001272088A0B92389A28861882846FFF73F
:1015600066FFE1882846FFF759FF23893A4631464E
:101570002846FFF712FFE1882846FFF701FF13E036
:101580002389A28861882846FFF707FFE18828465B
:10159000FFF7F6FE23893A4631462846FFF747FF14
:1015A000E1882846FFF73AFFBDE8F0810A884B88BA
:1015B0001A438B881A43CB881A430B891A434B89E9
:1015C0001A438B891A43A0F8442070474FF6FF71E5
:1015D000818000210180C18041800172704700211B
:1015E000018041808180C180018141818181C181EF
:1015F0007047002101804180012181800021C1804C
:10160000018170470021018041808180C18001817A
:101610004181818170470000002C0140003401406D
:101620000004004000080040000C004021B1028886
:1016300042F00102028004E002884FF6FE731A4075
:101640000280704731B1B0F8442042F40042A0F863
:10165000442005E0B0F84420C2F30E02A0F8442074
:1016600070471AB183890B43838102E083898B43DE
:10167000838170478182704741EA0203A0F84830B5
:1016800070471AB183890B43838102E083898B43BE
:101690008381704701894FF6F872114001817047CC
:1016A0000A46002101894FF68F73194011430181C9
:1016B000704730B504460D4629462046FFF7F0FF37
:1016C000208940F00700208130BD2DE9F04104461B
:1016D0000D4616461F46602D06D13B460122314677
:1016E0002046FFF75AFE05E03B46012231462046E0
:1016F000FFF79DFE29462046FFF7D2FF208940F0E4
:1017000007002081BDE8F08130B50C460021018939
:10171000C9B24FF6FF7505EA032515432543294352
:10172000018130BD2DE9F04105460E461746984629
:10173000002443463A4631462846FFF7E5FF2C8908
:101740004FF6F870044044F007044FF68F700440E1
:1017500044F070042C81BDE8F081F0B504460D46DC
:1017600016461F463B46324629462046FFF7CCFF29
:10177000208940F480402081F0BD0185828270473D
:101780000A46002101884FF68F73194011430180EA
:101790007047F0B50C4615461E4600210022002376
:1017A0000189028B038C4FF6F877394021434FF6BD
:1017B000FC473A4040F201173A434FF6DD773B4091
:1017C0004FF6FF7707EA06172F433B430181028359
:1017D0000384F0BD0A460021018B4FF68F73194038
:1017E0001143018370470A460021018B48F6FF73BD
:1017F00019404FF6FF7303EA022319430183704730
:101800000A460021818B4FF68F7319401143818363
:1018100070470A460021818B48F6FF7319404FF646
:10182000FF7303EA022319438183704721B10288C1
:1018300042F08002028004E002884FF67F731A4073
:101840000280704721B1828842F00402828004E065
:1018500082884FF6FB731A408280704721B18288DC
:1018600042F00802828004E082884FF6F7731A4043
:101870008280704721B1828842F00102828004E0B8
:1018800082884FF6FE731A40828070470A46002114
:10189000018B4FF6F77319401143018370470A46D5
:1018A0000021018B4FF2FF7319404FF6FF7303EADB
:1018B00002231943018370470A460021818B4FF6AA
:1018C000F77319401143818370470A460021818BC9
:1018D0004FF2FF7319404FF6FF7303EA02231943D7
:1018E000818370470A460021018B4FF6FB73194034
:1018F0001143018370470A460021018B4FF6FF33E5
:1019000019404FF6FF7303EA02231943018370471E
:101910000A460021818B4FF6FB73194011438183E6
:1019200070470A460021818B4FF6FF3319404FF66E
:10193000FF7303EA02231943818370470A4600219B
:10194000018B4FF67F7319401143018370470A469C
:101950000021018BC1F30E014FF6FF7303EA02234E
:101960001943018370470A460021818B4FF67F732C
:1019700019401143818370470A460021818BC1F3CE
:101980000E014FF6FF7303EA022319438183704768
:101990000A460021018C4FF6FD7319401143018462
:1019A00070470A460021018C4FF6F7731940114326
:1019B000018470470A460021018C4FF6DF731940FD
:1019C0004FF6FF7303EA02131943018470470A4676
:1019D0000021018C4FF67F7319404FF6FF7303EA25
:1019E00002131943018470470A460021018C4FF607
:1019F000FF5319404FF6FF7303EA02231943018492
:101A000070470A460021018C4FF2FF7319404FF6D0
:101A1000FF7303EA02231943018470470A46002139
:101A2000018C4DF6FF7319404FF6FF7303EA023342
:101A300019430184704730B5002301248C40A3B2C0
:101A4000048C9C430484048C02FA01F5ADB22C434F
:101A5000048430BD30B5002304248C40A3B2048C30
:101A60009C430484048C02FA01F5ADB22C43048437
:101A700030BD70B5034600200024184618300125FB
:101A80008D40ACB21D8CA5431D8409B1082909D134
:101A900000EB6100056825F07005056005681543D9
:101AA00005600EE00D1FC5F34E052844056825F4BA
:101AB000E045056005684FF6FF7606EA02263543E5
:101AC000056070BD21B1028842F00202028004E08C
:101AD00002884FF6FD731A400280704721B10288D8
:101AE00042F00402028004E002884FF6FB731A40C1
:101AF0000280704721B1828842F08002828004E037
:101B000082884FF67F731A408280704702884FF6B2
:101B1000F7731A40028002880A4302807047828865
:101B20004FF68F731A40828082880A438280704702
:101B300002894FF6F8731A40028102890A43028132
:101B4000704702894FF67F731A40028102890A4367
:101B50000281704781847047818570478186704714
:101B60000187704781877047A0F84010704702884E
:101B70004FF6FF431A40028002880A4302807047F2
:101B80000146888E70470146088F70470146888F4E
:101B900070470146B1F8400070470146888C704795
:101BA0000146088D704702460020138A0B400BB196
:101BB000012000E000207047CA430282704730B520
:101BC0000246002000230024158A05EA01039589B6
:101BD00005EA010413B10CB1012000E0002030BD82
:101BE000CA4302827047000010B50446FB48844295
:101BF00009D101218803FFF79FF800214FF48040AD
:101C0000FFF79AF832E0F648844209D101214804EE
:101C1000FFF79FF800214FF40030FFF79AF825E016
:101C2000F048844209D101218804FFF792F800218D
:101C30004FF48020FFF78DF818E0EB48844209D17B
:101C40000121C804FFF785F800214FF40020FFF7B9
:101C500080F80BE0E548844208D101210805FFF730
:101C600078F800214FF48010FFF773F810BD2DE9CC
:101C7000F04786B005460E460024A24600BFA146A6
:101C80000027B08900B100BF2F462C8A4CF6FF70A8
:101C90000440F08804432C82AC894EF6F3100440D3
:101CA000B08831890843718908430443AC81AC8A08
:101CB0004FF6FF400440B0890443AC8201A8FEF710
:101CC000B4FFC648874202D1DDF810A001E0DDF87C
:101CD0000CA0A88900F4004040B10AEBCA0000EB58
:101CE0000A1031684900B0FBF1F807E00AEBCA00BE
:101CF00000EB0A1031688900B0FBF1F86420B8FBF2
:101D0000F0F004012009642101FB1089A88900F486
:101D1000004040B1322000EBC900B0FBF1F000F010
:101D20000700044308E0322000EB09106421B0FBF7
:101D3000F1F000F00F0004432C8106B0BDE8F087FD
:101D40004FF41651016000218180C18001810C2176
:101D5000418100218181704710B502460020108A20
:101D60004FF2FF0318400B884C8823438C88234391
:101D7000CC8823431843108210BD0021018041808C
:101D80008180C180704721B1828942F400528281F2
:101D900004E082894DF6FF731A4082817047F0B5E6
:101DA0000346002400260025002040F66A17B942A9
:101DB00000D100BF1846C1F3421401F01F060127ED
:101DC00007FA06F5012C01D10C3004E0022C01D1F8
:101DD000103000E014301AB107682F43076002E0AA
:101DE0000768AF430760F0BD1AB1838A0B43838253
:101DF00002E0838A8B4383827047028A4FF6F07336
:101E00001A400282028A0A430282704782894FF294
:101E1000FF731A40828182890A438281704721B10F
:101E2000828942F00202828104E082894FF6FD73CA
:101E30001A4082817047028A4FF6DF731A4002828D
:101E4000028A0A430282704721B1028A42F4804228
:101E5000028204E0028A4BF6FF731A400282704746
:101E6000C1F308028280704701468888C0F30800E9
:101E70007047818941F0010181817047028BD2B2A4
:101E80000283028B42EA012202837047028B02F432
:101E90007F420283028B0A430283704721B1828A08
:101EA00042F02002828204E0828A4FF6DF731A40F9
:101EB0008282704721B1828A42F01002828204E05D
:101EC000828A4FF6EF731A408282704721B1828A6C
:101ED00042F00802828204E0828A4FF6F7731A40C9
:101EE0008282704721B1828942F40042828103E0FC
:101EF0008289C2F30E028281704721B1828A42F444
:101F00000062828204E0828A4FF2FF731A4082826A
:101F10007047828A4FF6FB731A408282828A0A4394
:101F20008282704721B1828A42F00202828204E0FA
:101F3000828A4FF6FD731A40828270470246002063
:101F4000B1F5007F00D100BF13880B400BB1012019
:101F500000E00020704701F40072B2F5007F00D16C
:101F600000BFCA430280704770B5024600240023B8
:101F70000025002040F66A16B14200D100BFC1F32F
:101F8000421501F01F03012606FA03F3012D02D1C9
:101F90009689334006E0022D02D1168A334001E0D3
:101FA000968A33400C12012606FA04F4168834404F
:101FB00013B10CB1012000E0002070BD10B500226B
:101FC000002340F66A14A14200D100BF0A12012486
:101FD0009440A3B2DC43048010BD000000380140EF
:101FE0000044004000480040004C004000500040C9
:101FF00010B56FF00400FEF7BCFA2E4800682E49B9
:10200000B0FBF1F02D4908700846007800EB400164
:10201000C1EBC0104FF6FF7101EAC00028490880EB
:1020200010BD0146254A12784A434FF0E0235A6119
:1020300000229A611A46126942F001021A6100BF39
:102040004FF0E022106900F001021AB100F4803272
:10205000002AF5D04FF0E022126922F001024FF081
:10206000E0231A6100229A6170470146144A1288DF
:102070004A434FF0E0235A6100229A611A461269DE
:1020800042F001021A6100BF4FF0E022106900F037
:1020900001021AB100F48032002AF5D04FF0E0229C
:1020A000126922F001024FF0E0231A6100229A61C6
:1020B000704700000800002000127A003000002065
:1020C0003200002070B504460D460A2C16D10D21B1
:1020D0007748FFF7C5FE00BF7548008800F0800014
:1020E0000028F9D00A217248FFF7BAFE00BF7048F5
:1020F000008800F080000028F9D00AE0E1B26C48C6
:10210000FFF7AEFE00BF6A48008800F0800000289C
:10211000F9D0204670BD08B526208DF800000320B8
:102120008DF801008DF8020001208DF8030068464B
:10213000FEF7D5F908BD10B586B00446012105208B
:10214000FEF7E0FD01214804FEF7E9FD0420ADF8AB
:10215000140003208DF8160018208DF8170005A92B
:102160005448FEF713FB01940020ADF80800ADF8C9
:102170000A00ADF80C00ADF810000820ADF80E0014
:1021800001A94B48FFF773FDFFF7C5FF012240F29D
:1021900025514748FFF703FE01214548FFF7F3FDAE
:1021A00006B010BD70B504460D460BE000BF4048B8
:1021B000008800F040000028F9D014F8011B3C48CA
:1021C000FFF74EFE281EA5F10101CDB2EED170BD84
:1021D00010B540F225513648FFF7C6FE00285BD007
:1021E0003348FFF741FEC4B233480078C8B9552CD4
:1021F00010D132480078401C3049087008460078F9
:1022000002280ED10020087001202B4908702C49AB
:10221000087006E0002028490870294908702749FD
:10222000087025480078B8B32648254909784454F1
:1022300023480078032813D1224821490978405CBB
:102240002149087008460078032803DB0846007817
:10225000072805DD03201C49087000201649087076
:1022600017480078401C164908700846017816483F
:102270000078C01C81420FD11448007848B9012071
:10228000124908700E480278921C0E4910480BF053
:1022900059FD00200849087010BD0C48007801283D
:1022A00004D1002009490870012070470020FCE794
:1022B00000440040000801403500002036000020A6
:1022C000380000205000002037000020340000209B
:1022D0006000002008B501211020FEF713FD40200A
:1022E000ADF8000010208DF8030003208DF80200E7
:1022F00069460948FEF74AFA40210748FEF7F5FA11
:102300008020ADF8000069460348FEF73FFA8021BF
:102310000148FEF7EAFA08BD00100140014600221C
:10232000022004E00B5C13449AB2431CD8B2CB7871
:102330009B1C8342F6DCD3439AB2D0B270477CB583
:1023400004460D4655208DF801008DF800008DF8EB
:10235000024004208DF803000D208DF804008DF854
:1023600005506846FFF7DAFF8DF80600072168463A
:10237000FFF718FF7CBDFEB506460C461546002C3F
:1023800000DA0024B4F57A7F01DD4FF47A74552029
:102390008DF801008DF800008DF8026007208DF89F
:1023A000030001208DF80400E0B28DF80500200A3A
:1023B0008DF80600E8B28DF8070028128DF80800A5
:1023C0006846FFF7ABFF8DF809000A216846FFF762
:1023D000E9FEFEBD1CB5044655208DF801008DF8C0
:1023E00000008DF8024004208DF803001F208DF8B6
:1023F000040000208DF805006846FFF78FFF8DF878
:10240000060007216846FFF7CDFE1CBD1CB504463B
:1024100055208DF801008DF800008DF80240042051
:102420008DF803001F208DF8040001208DF80500B1
:102430006846FFF773FF8DF8060007216846FFF72F
:10244000B1FE1CBD70B54CF2503604E0761E002E75
:1024500001DA1F4870BDFFF720FF0028F6D01D48A5
:10246000FFF75CFF1B49C978891C1A4A515C8842F6
:1024700002D06FF40060EDE7164804791C2C06D1F9
:1024800040791449897940EA01252846E2E700BFEE
:1024900000BF0020DEE77CB5044655208DF8010022
:1024A0008DF800008DF8024003208DF803001C20F9
:1024B0008DF804006846FFF731FF8DF8050006210E
:1024C0006846FFF76FFEFFF7BDFF054628467CBD57
:1024D00000F8FFFF6000002010B54FF448724FF481
:1024E000FA710120FFF747FF4FF448724FF4FA7179
:1024F0000220FFF740FF4FF448724FF4FA710320B7
:10250000FFF739FF4FF448724FF4FA710420FFF7D8
:1025100032FF4FF448724FF4FA710520FFF72BFF9A
:102520004FF448724FF4FA710620FFF724FF4FF47E
:1025300048724FF4FA710720FFF71DFF4FF44872FD
:102540004FF4FA710820FFF716FF4FF448724FF46A
:10255000FA710920FFF70FFF4FF448724FF4FA7138
:102560000A20FFF708FF5A2006F004FB5A2006F065
:1025700028FB5A2006F04CFB5A2006F070FB5A202C
:1025800006F094FB40F22530FFF76FFD10BD10B54B
:102590004FF4FA7240F2AB110120FFF7ECFE4FF45A
:1025A000FA72111D0220FFF7E6FE4FF4FA72111FB6
:1025B0000320FFF7E0FE4FF4FA7211460420FFF704
:1025C000DAFE4FF4FA724FF4BE710520FFF7D3FE26
:1025D0004FF4FA72911E0620FFF7CDFE4FF4FA7207
:1025E00011460720FFF7C7FE4FF4FA72111F0820AB
:1025F000FFF7C1FE4FF4FA72111F0920FFF7BBFE6F
:102600004FF4FA72911C0A20FFF7B5FE40F2F91060
:10261000FFF72BFD4FF4FA724FF4D7710120FFF74B
:10262000AAFE4FF4FA72511D0220FFF7A4FE4FF4E8
:10263000FA72911F0320FFF79EFE4FF4FA72111DEC
:102640000420FFF798FE4FF4FA724FF4F271052060
:10265000FFF791FE4FF4FA724FF4BE710620FFF7B8
:102660008AFE4FF4FA7240F2D7210720FFF783FE6B
:102670004FF4FA7240F219210820FFF77CFE4FF464
:10268000FA72111F0920FFF776FE4FF4FA72114615
:102690000A20FFF770FE40F2F910FFF7E6FC4FF456
:1026A000FA724FF4F5710120FFF765FE4FF4FA72EC
:1026B0004FF40C710220FFF75EFE4FF4FA72911F87
:1026C0000320FFF758FE4FF4FA72511C0420FFF765
:1026D00052FE4FF4FA7211460520FFF74CFE4FF4FC
:1026E000FA724FF4BF710620FFF745FE4FF4FA72FD
:1026F00040F2CE210720FFF73EFE4FF4FA7240F27F
:1027000016210820FFF737FE4FF4FA72111F092037
:10271000FFF731FE4FF4FA72911C0A20FFF72BFEEF
:1027200040F2F910FFF7A1FC4FF4FA7240F2472192
:102730000120FFF720FE4FF4FA7240F22D21022013
:10274000FFF719FE4FF4FA724FF4F6710320FFF70A
:1027500012FE4FF4FA72911E0420FFF70CFE4FF4A4
:10276000FA7240F231210520FFF705FE4FF4FA72AC
:1027700040F27F110620FFF7FEFD4FF4FA7240F29F
:10278000C7210720FFF7F7FD4FF4FA7240F213213B
:102790000820FFF7F0FD4FF4FA72111F0920FFF730
:1027A000EAFD4FF4FA72D11C0A20FFF7E4FD40F273
:1027B000F910FFF75AFC4FF4FA7240F23F21012062
:1027C000FFF7D9FD4FF4FA724FF40A710220FFF7B8
:1027D000D2FD4FF4FA72D11F0320FFF7CCFD4FF466
:1027E000FA72511C0420FFF7C6FD4FF4FA7240F252
:1027F0003F210520FFF7BFFD4FF4FA72511D06205F
:10280000FFF7B9FD4FF4FA72511F0720FFF7B3FD30
:102810004FF4FA72111F0820FFF7ADFD4FF4FA7262
:10282000511E0920FFF7A7FD4FF4FA72D11C0A20B0
:10283000FFF7A1FD40F2F910FFF717FC4FF4FA7211
:1028400040F209210120FFF796FD4FF4FA7240F2A1
:1028500085110220FFF78FFD4FF4FA7240F212212A
:102860000320FFF788FD4FF4FA7240F26F21042035
:10287000FFF781FD4FF4FA724FF40D710520FFF759
:102880007AFD4FF4FA7240F203210620FFF773FD40
:102890004FF4FA72111D0720FFF76DFD4FF4FA7225
:1028A000511F0820FFF767FD4FF4FA721146092007
:1028B000FFF761FD4FF4FA72911C0A20FFF75BFDF0
:1028C00040F2F910FFF7D1FB4FF4FA72511C0120CE
:1028D000FFF751FD4FF4FA724FF4C4710220FFF775
:1028E0004AFD4FF4FA7240F20D210320FFF743FD39
:1028F0004FF4FA7240F26A210420FFF73CFD4FF4D6
:10290000FA72D11C0520FFF736FD4FF4FA7240F23F
:1029100003210620FFF72FFD4FF4FA72111D072047
:10292000FFF729FD4FF4FA72D11E0820FFF723FDAF
:102930004FF4FA72511E0920FFF71DFD4FF4FA7291
:10294000511C0A20FFF717FD40F2F910FFF78DFB2D
:1029500010BD10B54FF42F7240F2AB110120FFF7FC
:102960000AFD4FF42F724FF4FC710220FFF703FDB4
:102970004FF42F724FF4F8710320FFF7FCFC4FF473
:102980002F7240F226210420FFF7F5FC4FF42F723E
:102990004FF4BE710520FFF7EEFC4FF42F724FF499
:1029A000F9710620FFF7E7FC4FF42F7240F2262161
:1029B0000720FFF7E0FC4FF42F724FF4F871082066
:1029C000FFF7D9FC4FF42F724FF4F8710920FFF78D
:1029D000D2FC4FF42F724FF4FB710A20FFF7CBFCAF
:1029E00040F2C120FFF741FB4FF42F7240F2B511C6
:1029F0000120FFF7C0FC4FF42F7240F2F3110220C8
:102A0000FFF7B9FC4FF42F7240F2F1110320FFF7EA
:102A1000B2FC4FF42F7240F22F210420FFF7ABFCE1
:102A20004FF42F724FF4F3710520FFF7A4FC4FF41D
:102A30002F724FF4BE710620FFF79DFC4FF42F72EA
:102A400040F21E310720FFF796FC4FF42F7240F240
:102A50006A210820FFF78FFC4FF42F7240F2F1112A
:102A60000920FFF788FC4FF42F724FF4FB710A2006
:102A7000FFF781FC40F2C120FFF7F7FA4FF42F7205
:102A800040F2F3110120FFF776FC4FF42F724FF460
:102A9000FB710220FFF76FFC4FF42F7240F2EF1131
:102AA0000320FFF768FC4FF42F7240F22B21042023
:102AB000FFF761FC4FF42F7240F20B210520FFF766
:102AC0005AFC4FF42F724FF4C1710620FFF753FCEC
:102AD0004FF42F7240F219310720FFF74CFC4FF4EE
:102AE0002F724FF41A710820FFF745FC4FF42F7234
:102AF0004FF4F9710920FFF73EFC4FF42F7240F2BA
:102B0000F3110A20FFF737FC40F2C120FFF7ADFABE
:102B10004FF42F7240F247210120FFF72CFC4FF4B5
:102B20002F7240F22D210220FFF725FC4FF42F7267
:102B30004FF4F6710320FFF71EFC4FF42F724FF491
:102B400009710420FFF717FC4FF42F7240F2312176
:102B50000520FFF710FC4FF42F7240F27F11062082
:102B6000FFF709FC4FF42F7240F2F9210720FFF71D
:102B700002FC4FF42F7240F213210820FFF7FBFBF9
:102B80004FF42F724FF4F8710920FFF7F4FB4FF464
:102B90002F7240F2F7110A20FFF7EDFB40F2C1203F
:102BA000FFF763FA4FF42F7240F23F210120FFF745
:102BB000E2FB4FF42F724FF40A710220FFF7DBFBA8
:102BC0004FF42F7240F2ED110320FFF7D4FB4FF4C6
:102BD0002F7240F227210420FFF7CDFB4FF42F7214
:102BE00040F23F210520FFF7C6FB4FF42F7240F261
:102BF000F9110620FFF7BFFB4FF42F7240F221219D
:102C00000720FFF7B8FB4FF42F724FF4F87108203C
:102C1000FFF7B1FB4FF42F7240F2F3110920FFF7D9
:102C2000AAFB4FF42F7240F2F7110A20FFF7A3FB23
:102C300040F2C120FFF719FA4FF42F7240F2092138
:102C40000120FFF798FB4FF42F7240F2851102200C
:102C5000FFF791FB4FF42F7240F212210320FFF790
:102C60008AFB4FF42F7240F2A1210420FFF783FB6F
:102C70004FF42F724FF40D710520FFF77CFB4FF4DA
:102C80002F7240F203210620FFF775FB4FF42F72DD
:102C900040F22A210720FFF76EFB4FF42F7240F21B
:102CA000EF110820FFF767FB4FF42F724FF4FA7112
:102CB0000920FFF760FB4FF42F724FF4FB710A20DD
:102CC000FFF759FB40F2C120FFF7CFF94FF42F7205
:102CD00040F2E7110120FFF74EFB4FF42F7240F254
:102CE0008B110220FFF747FB4FF42F7240F20D21AA
:102CF0000320FFF740FB4FF42F724FF4277104209D
:102D0000FFF739FB4FF42F724FF4FE710520FFF7E8
:102D100032FB4FF42F724FF402710620FFF72BFBAA
:102D20004FF42F7240F229210720FFF724FB4FF4C4
:102D30002F724FF4F9710820FFF71DFB4FF42F722B
:102D400040F2F3110920FFF716FB4FF42F724FF4F6
:102D5000FB710A20FFF70FFB40F2C120FFF785F956
:102D60004FF42F7240F2BB110120FFF704FB4FF428
:102D70002F724FF4C5710220FFF7FDFA4FF42F7246
:102D800040F205210320FFF7F6FA4FF42F7240F2CC
:102D90009A210420FFF7EFFA4FF42F7240F29311BB
:102DA0000520FFF7E8FA4FF42F724FF40271062066
:102DB000FFF7E1FA4FF42F7240F226210720FFF7C8
:102DC000DAFA4FF42F7240F2F3110820FFF7D3FA2A
:102DD0004FF42F724FF4F9710920FFF7CCFA4FF43A
:102DE0002F7240F2F5110A20FFF7C5FA40F2C12018
:102DF000FFF73BF910BD10B540F28A2240F2A9114D
:102E00000120FFF7B8FA40F28A2240F2F9110220BD
:102E1000FFF7B1FA40F28A224FF4FC710320FFF76A
:102E2000AAFA40F28A2240F221210420FFF7A3FAF5
:102E300040F28A2240F2A9110520FFF79CFA40F2E5
:102E40008A224FF40A710620FFF795FA40F28A228F
:102E500040F227210720FFF78EFA40F28A2240F243
:102E6000FB110820FFF787FA40F28A2240F2F111A5
:102E70000920FFF780FA40F28A2240F2F5110A2079
:102E8000FFF779FA40F28F20FFF7EFF84FF4C8729E
:102E90004FF4DA710120FFF76EFA4FF4C87240F276
:102EA00003210220FFF767FA4FF4C87240F2F911CC
:102EB0000320FFF760FA4FF4C87240F22A21042081
:102EC000FFF759FA4FF4C87240F2DF110520FFF7FF
:102ED00052FA4FF4C87240F2C1110620FFF74BFAC4
:102EE0004FF4C87240F2A1210720FFF744FA4FF4D3
:102EF000C8724FF4EB710820FFF73DFA4FF4C87227
:102F00004FF4F9710920FFF736FA4FF4C8724FF405
:102F1000FA710A20FFF72FFA40F29510FFF7A5F893
:102F20004FF496724FF4FA710120FFF724FA4FF430
:102F3000967240F22D210220FFF71DFA4FF496728F
:102F40004FF4F6710320FFF716FA4FF496724FF420
:102F500009710420FFF70FFA4FF496724FF4F071E5
:102F60000520FFF708FA4FF4967240F27F11062011
:102F7000FFF701FA4FF4967240F2F9210720FFF7AC
:102F8000FAF94FF4967240F213210820FFF7F3F993
:102F90004FF496724FF4F8710920FFF7ECF94FF4F3
:102FA000967240F2F7110A20FFF7E5F940F231106E
:102FB000FFF75BF84FF4967240F247210120FFF7CC
:102FC000DAF94FF4967240F22D210220FFF7D3F97F
:102FD0004FF496724FF4F6710320FFF7CCF94FF4DB
:102FE00096724FF409710420FFF7C5F94FF49672F9
:102FF00040F231210520FFF7BEF94FF4967240F2FE
:103000007F110620FFF7B7F94FF4967240F2F921CD
:103010000720FFF7B0F94FF4967240F21321082011
:10302000FFF7A9F94FF496724FF4F8710920FFF7F2
:10303000A2F94FF4967240F2F7110A20FFF79BF9BC
:1030400040F23110FFF711F840F28A2240F23F219E
:103050000120FFF790F940F28A224FF40A71022012
:10306000FFF789F940F28A2240F2ED110320FFF7C1
:1030700082F940F28A2240F227210420FFF77BF9EF
:1030800040F28A2240F23F210520FFF774F940F216
:103090008A2240F2F9110620FFF76DF940F28A22E8
:1030A00040F221210720FFF766F940F28A224FF40F
:1030B000F8710820FFF75FF940F28A2240F2F3111D
:1030C0000920FFF758F940F28A2240F2F7110A204E
:1030D000FFF751F940F28F20FEF7C7FF4FF4C87297
:1030E00040F209210120FFF746F94FF4C87240F27F
:1030F000C1110220FFF73FF94FF4C87240F21221CC
:103100000320FFF738F94FF4C87240F2A1210420E0
:10311000FFF731F94FF4C8724FF40D710520FFF736
:103120002AF94FF4C87240F203210620FFF723F971
:103130004FF4C87240F22A210720FFF71CF94FF420
:10314000C87240F2EF110820FFF715F94FF4C8726A
:103150004FF4FA710920FFF70EF94FF4C8724FF4DB
:10316000FB710A20FFF707F940F29510FEF77DFF8B
:103170004FF4967240F2DD110120FFF7FCF84FF496
:1031800096724FF4C1710220FFF7F5F84FF4967272
:103190004FF4C0710320FFF7EEF84FF4967240F23F
:1031A00019310420FFF7E7F84FF4967240F2F51159
:1031B0000520FFF7E0F84FF4967240F22D2106202B
:1031C000FFF7D9F84FF496724FF409710720FFF713
:1031D000D2F84FF496724FF4FE710820FFF7CBF847
:1031E0004FF4967240F2F5110920FFF7C4F84FF43E
:1031F00096724FF4FA710A20FFF7BDF840F23110D1
:10320000FEF733FF4FF4967240F2B7110120FFF73B
:10321000B2F84FF4967240F27F110220FFF7ABF83C
:103220004FF4967240F2D5110320FFF7A4F84FF443
:10323000967240F2F9210420FFF79DF84FF4967240
:1032400040F2A1110520FFF796F84FF4967240F274
:103250002D210620FFF78FF84FF496724FF4097175
:103260000720FFF788F84FF496724FF4FE7108209C
:10327000FFF781F84FF4967240F2F1110920FFF741
:103280007AF84FF496724FF4FC710A20FFF773F846
:1032900040F23110FEF7E9FE10BD10B54FF4E172B7
:1032A00040F2A9110120FFF766F84FF4E17240F2F5
:1032B000F9110220FFF75FF84FF4E1724FF4FC714F
:1032C0000320FFF758F84FF4E17240F22121042067
:1032D000FFF751F84FF4E1724FF4C8710520FFF782
:1032E0004AF84FF4E17240F249210620FFF743F813
:1032F0004FF4E17240F271210720FFF73CF84FF4E0
:10330000E17240F27B210820FFF735F84FF4E172BB
:1033100040F2F1110920FFF72EF84FF4E17240F26C
:10332000F5110A20FFF727F840F2C710FEF79DFEBF
:103330004FF4E1724FF4D1710120FFF71CF84FF404
:10334000E1724FF4FD710220FFF715F84FF4E172BE
:1033500040F2F7110320FFF70EF84FF4E17240F24C
:10336000D1110420FFF707F84FF4E1724FF4007118
:103370000520FFF700F84FF4E172D11C0620FEF79C
:10338000FAFF4FF4E17240F292210720FEF7F3FFBB
:103390004FF4E17240F2F7110820FEF7ECFF4FF412
:1033A000E1724FF402710920FEF7E5FF4FF4E1727C
:1033B00040F2F1110A20FEF7DEFF40F2C710FEF7DF
:1033C00054FE4FF4E17240F2F3110120FEF7D3FFF7
:1033D0004FF4E17240F2FB110220FEF7CCFF4FF4F4
:1033E000E17240F2F7110320FEF7C5FF4FF4E172DE
:1033F00040F2D1110420FEF7BEFF4FF4E17240F21B
:1034000006210520FEF7B7FF4FF4E17240F24D119F
:103410000620FEF7B0FF4FF4E17240F2932107203F
:10342000FEF7A9FF4FF4E17240F2FD110820FEF70C
:10343000A2FF4FF4E1724FF402710920FEF79BFFE7
:103440004FF4E1724FF4F9710A20FEF794FF40F255
:10345000C710FEF70AFE4FF4E17240F2F3110120AB
:10346000FEF789FF4FF4E1724FF4FB710220FEF783
:1034700082FF4FF4E17240F2EF110320FEF77BFF71
:103480004FF4E17240F22B210420FEF774FF4FF459
:10349000E17240F23F210520FEF76DFF4FF4E1722B
:1034A0004FF4C1710620FEF766FF4FF4E17240F25F
:1034B00019310720FEF75FFF4FF4E1724FF41A71E4
:1034C0000820FEF758FF4FF4E1724FF40271092013
:1034D000FEF751FF4FF4E1724FF4FA710A20FEF744
:1034E0004AFF40F2C710FEF7C0FD40F2262240F22C
:1034F0003F210120FEF73FFF40F22622911C0220CF
:10350000FEF739FF40F2262240F2ED110320FEF7CC
:1035100032FF40F22622511C0420FEF72CFF40F21D
:10352000262240F23F210520FEF725FF40F2262209
:1035300040F2F9110620FEF71EFF40F22622511F2D
:103540000720FEF718FF40F226224FF4F8710820FA
:10355000FEF711FF40F2262240F2F3110920FEF798
:103560000AFF40F2262240F2F7110A20FEF703FF7D
:1035700040F22B20FEF779FD4FF4E17240F2092171
:103580000120FEF7F8FE4FF4E17240F285110220AF
:10359000FEF7F1FE4FF4E17240F212210320FEF734
:1035A000EAFE4FF4E17240F2A1210420FEF7E3FEAF
:1035B0004FF4E1724FF40D710520FEF7DCFE4FF47D
:1035C000E17240F203210620FEF7D5FE4FF4E172CE
:1035D00040F22A210720FEF7CEFE4FF4E17240F2BE
:1035E000EF110820FEF7C7FE4FF4E1724FF4FA71B5
:1035F0000920FEF7C0FE4FF4E1724FF4FB710A2080
:10360000FEF7B9FE40F2C710FEF72FFD4FF4E1724E
:1036100040F2DD110120FEF7AEFE4FF4E1724FF4EF
:10362000C1710220FEF7A7FE4FF4E1724FF4C071A2
:103630000320FEF7A0FE4FF4E17240F2193104209E
:10364000FEF799FE4FF4E17240F2F5110520FEF706
:1036500092FE4FF4E1724FF4FB710620FEF78BFEF1
:103660004FF4E17240F22B210720FEF784FE4FF465
:10367000E17240F2F9110820FEF77DFE4FF4E1728D
:1036800040F2F5110920FEF776FE4FF4E1724FF497
:10369000FA710A20FEF76FFE40F2C710FEF7E5FC54
:1036A0004FF4E17240F2B7110120FEF764FE4FF4CF
:1036B000E17240F27F110220FEF75DFE4FF4E172ED
:1036C00040F2D5110320FEF756FE4FF4E17240F2AE
:1036D000F9210420FEF74FFE4FF4E17240F2A111F0
:1036E0000520FEF748FE4FF4E17240F22D2106203E
:1036F000FEF741FE4FF4E1724FF409710720FEF727
:103700003AFE4FF4E1724FF4FE710820FEF733FEEB
:103710004FF4E17240F2F1110920FEF72CFE4FF454
:10372000E1724FF4FC710A20FEF725FE40F2C7104B
:10373000FEF79BFC10BD10B540F2EE2240F2A9113D
:103740000120FEF718FE40F2EE2240F2F9110220AD
:10375000FEF711FE40F2EE224FF4FC710320FEF75B
:103760000AFE40F2EE2240F22B210420FEF703FE77
:1037700040F2EE224FF4C8710520FEF7FCFD40F246
:10378000EE2240F249210620FEF7F5FD40F2EE223E
:1037900040F271210720FEF7EEFD40F2EE2240F2EA
:1037A00071210820FEF7E7FD40F2EE2240F2F11110
:1037B0000920FEF7E0FD40F2EE2240F2F5110A206A
:1037C000FEF7D9FD40F2F320FEF74FFC4FF4E17213
:1037D0004FF4D1710120FEF7CEFD4FF4E1724FF4AA
:1037E000FD710220FEF7C7FD4FF4E17240F2F711C0
:1037F0000320FEF7C0FD4FF4E17240F2DB1104201C
:10380000FEF7B9FD4FF4E1724FF400710520FEF7A9
:10381000B2FD4FF4E172D11C0620FEF7ACFD4FF46F
:10382000E17240F292210720FEF7A5FD4FF4E1720C
:1038300040F2ED110820FEF79EFD4FF4E1724FF4C7
:1038400002710920FEF797FD4FF4E17240F2F11189
:103850000A20FEF790FD40F2C710FEF706FC4FF479
:10386000167240F2F3110120FEF785FD4FF4167237
:1038700040F2FB110220FEF77EFD4FF4167240F27B
:10388000F7110320FEF777FD4FF4167240F2DB11BB
:103890000420FEF770FD4FF4167240F20621052059
:1038A000FEF769FD4FF4167240F24D110620FEF747
:1038B00062FD4FF4167240F293210720FEF75BFD84
:1038C0004FF4167240F2F3110820FEF754FD4FF446
:1038D00016724FF402710920FEF74DFD4FF4167277
:1038E0004FF4F9710A20FEF746FD40F25D20FEF725
:1038F000BCFB4FF4E17240F2F3110120FEF73BFDF7
:103900004FF4E1724FF4FB710220FEF734FD4FF4E7
:10391000E17240F2EF110320FEF72DFD4FF4E1724A
:1039200040F235210420FEF726FD4FF4E17240F20B
:103930003F210520FEF71FFD4FF4E1724FF4C171E6
:103940000620FEF718FD4FF4E17240F2193107200E
:10395000FEF711FD4FF4E17240F25E210820FEF700
:103960000AFD4FF4E1724FF402710920FEF703FDE6
:103970004FF4E1724FF4FA710A20FEF7FCFC40F2BA
:10398000C710FEF772FB40F21A4240F23F210120BD
:10399000FEF7F1FC40F21A424FF40A710220FEF7E2
:1039A000EAFC40F21A4240F2ED110320FEF7E3FC7C
:1039B00040F21A4240F231210420FEF7DCFC40F2D2
:1039C0001A4240F23F210520FEF7D5FC40F21A4290
:1039D00040F2F9110620FEF7CEFC40F21A4240F206
:1039E00021210720FEF7C7FC40F21A424FF4F37181
:1039F0000820FEF7C0FC40F21A4240F2F311092001
:103A0000FEF7B9FC40F21A4240F2F7110A20FEF725
:103A1000B2FC40F21F40FEF728FB40F28A2240F23F
:103A200009210120FEF7A7FC40F28A2240F285110D
:103A30000220FEF7A0FC40F28A2240F2122103206D
:103A4000FEF799FC40F28A2240F2AB210420FEF7F7
:103A500092FC40F28A224FF40D710520FEF78BFC98
:103A600040F28A2240F203210620FEF784FC40F255
:103A70008A2240F22A210720FEF77DFC40F28A22AA
:103A800040F2E5110820FEF776FC40F28A224FF45E
:103A9000FA710920FEF76FFC40F28A224FF4FB71A5
:103AA0000A20FEF768FC40F28F20FEF7DEFA4FF4A2
:103AB000E17240F2DD110120FEF75DFC4FF4E1728E
:103AC0004FF4C1710220FEF756FC4FF4E1724FF43F
:103AD000C0710320FEF74FFC4FF4E17240F2233136
:103AE0000420FEF748FC4FF4E17240F2F511052086
:103AF000FEF741FC4FF4E1724FF4FB710620FEF734
:103B00003AFC4FF4E17240F22B210720FEF733FC20
:103B10004FF4E17240F2EF110820FEF72CFC4FF455
:103B2000E17240F2F5110920FEF725FC4FF4E17235
:103B30004FF4FA710A20FEF71EFC40F2C710FEF7A0
:103B400094FA4FF4E17240F2B7110120FEF713FC32
:103B50004FF4E17240F27F110220FEF70CFC4FF4AB
:103B6000E17240F2D5110320FEF705FC4FF4E1723B
:103B700040F203310420FEF7FEFB4FF4E17240F205
:103B8000A1110520FEF7F7FB4FF4E17240F22D2161
:103B90000620FEF7F0FB4FF4E1724FF409710720A5
:103BA000FEF7E9FB4FF4E1724FF4F9710820FEF7DC
:103BB000E2FB4FF4E17240F2F1110920FEF7DBFB6A
:103BC0004FF4E1724FF4FC710A20FEF7D4FB40F28F
:103BD000C710FEF74AFA10BD10B54FF4E17240F27B
:103BE000A9110120FEF7C7FB4FF4E17240F2F91171
:103BF0000220FEF7C0FB4FF4E1724FF4FC7103208A
:103C0000FEF7B9FB4FF4E17240F221210420FEF7E8
:103C1000B2FB4FF4E17240F2A9110520FEF7ABFBB5
:103C20004FF4E1724FF40A710620FEF7A4FB4FF443
:103C3000E17240F227210720FEF79DFB4FF4E1726D
:103C400040F2FB110820FEF796FB4FF4E1724FF4AF
:103C5000FA710920FEF78FFB4FF4E1724FF4FA710D
:103C60000A20FEF788FB40F2C710FEF7FEF94FF47A
:103C7000E1724FF4DA710120FEF77DFB4FF4E1723F
:103C800040F203210220FEF776FB4FF4E17240F28E
:103C9000F9110320FEF76FFB4FF4E17240F22A2185
:103CA0000420FEF768FB4FF4E17240F2DF110520BB
:103CB000FEF761FB4FF4E17240F285110620FEF73A
:103CC0005AFB4FF4E17240F2A1210720FEF753FBAB
:103CD0004FF4E1724FF4EB710820FEF74CFB4FF408
:103CE000E17211460920FEF746FB4FF4E1724FF4F2
:103CF000FA710A20FEF73FFB40F2C710FEF7B5F954
:103D00004FF4E17240F2F3110120FEF734FB4FF45F
:103D1000E1724FF4FB710220FEF72DFB4FF4E172CC
:103D200040F2EF110320FEF726FB4FF4E17240F260
:103D30002B210420FEF71FFB4FF4E17240F20B2110
:103D40000520FEF718FB4FF4E1724FF4C171062015
:103D5000FEF711FB4FF4E17240F219310720FEF734
:103D60000AFB4FF4E1724FF41A710820FEF703FBCF
:103D70004FF4E17211460920FEF7FDFA4FF4E172AB
:103D80004FF4FA710A20FEF7F6FA40F2C710FEF778
:103D90006CF94FF4E17240F247210120FEF7EBFA93
:103DA0004FF4E17240F22D210220FEF7E4FA4FF4C5
:103DB000E1724FF4F6710320FEF7DDFA4FF4E17281
:103DC0004FF409710420FEF7D6FA4FF4E17240F285
:103DD00031210520FEF7CFFA4FF4E17240F27F1156
:103DE0000620FEF7C8FA4FF4E17240F2F9210720ED
:103DF000FEF7C1FA4FF4E17240F213210820FEF7FA
:103E0000BAFA4FF4E17211460920FEF7B4FA4FF402
:103E1000E1724FF4FA710A20FEF7ADFA40F2C710D2
:103E2000FEF723F94FF4E1724FF416710120FEF70B
:103E3000A2FA4FF4E17240F249210220FEF79BFA08
:103E40004FF4E17240F26D110320FEF794FA4FF443
:103E5000E17240F271210420FEF78DFA4FF4E17215
:103E600040F23F210520FEF786FA4FF4E17240F25E
:103E7000F9110620FEF77FFA4FF4E17240F221219A
:103E80000720FEF778FA4FF4E1724FF4F87108203A
:103E9000FEF771FA4FF4E1724FF4FA710920FEF760
:103EA0006AFA4FF4E1724FF4FA710A20FEF763FAEE
:103EB00040F2C710FEF7D9F84FF4E1724FF4F471F5
:103EC0000120FEF758FA4FF4E172D11C0220FEF7F0
:103ED00052FA4FF4E17240F2F1110320FEF74BFA6F
:103EE0004FF4E17240F292210420FEF744FA4FF4BD
:103EF000E17240F246210520FEF73DFA4FF4E172EF
:103F00004FF4FD710620FEF736FA4FF4E17240F2ED
:103F1000D1110720FEF72FFA4FF4E17240F2F111B0
:103F20000820FEF728FA4FF4E1724FF4FA710920E5
:103F3000FEF721FA4FF4E17211460A20FEF71BFA50
:103F400040F2C710FEF791F84FF4E1724FF4F171AF
:103F50000120FEF710FA4FF4E17240F24D110220F9
:103F6000FEF709FA4FF4E17240F2EB110320FEF77D
:103F700002FA4FF4E17240F293210420FEF7FBF9BC
:103F80004FF4E17240F2F5110520FEF7F4F94FF419
:103F9000E17240F2FB110620FEF7EDF94FF4E172F9
:103FA00040F2D1110720FEF7E6F94FF4E17240F23A
:103FB000F1110820FEF7DFF94FF4E1724FF4FA71C6
:103FC0000920FEF7D8F94FF4E17211460A20FEF7F6
:103FD000D2F940F2C710FEF748F84FF4E17240F210
:103FE000A9110120FEF7C7F94FF4E1724FF4C17136
:103FF0000220FEF7C0F94FF4E1724FF4C0710320C4
:10400000FEF7B9F94FF4E17240F219310420FEF7DE
:10401000B2F94FF4E17240F2F5110520FEF7ABF969
:104020004FF4E1724FF4FB710620FEF7A4F94FF450
:10403000E17240F22B210720FEF79DF94FF4E17267
:1040400040F2F9110820FEF796F94FF4E1724FF4AF
:10405000FA710920FEF78FF94FF4E17211460A2038
:10406000FEF789F940F2C710FDF7FFFF10BD10B54C
:10407000FA2240F2A9110120FEF77DF9FA2240F25E
:10408000F9110220FEF777F9FA2251000320FEF71A
:1040900072F9FA2251000420FEF76DF9FA2240F27B
:1040A000A9110520FEF767F9FA2240F2292106201E
:1040B000FEF761F9FA2251000720FEF75CF94FF490
:1040C000E1724FF4FD710820FEF755F9FA2240F233
:1040D000F1110920FEF74FF9FA2240F2F5110A20FA
:1040E000FEF749F9FF20FDF7C0FF64224FF4DA71B3
:1040F0000120FEF740F9642240F203210220FEF77E
:104100003AF964224FF4FF710320FEF734F9642278
:104110004FF4FA710420FEF72EF9642240F2DF1109
:104120000520FEF728F9642240F2C1110620FEF7AF
:1041300022F964224FF4FA710720FEF71CF94FF4BC
:10414000967240F25B110820FEF715F964224FF4D5
:10415000F9710920FEF70FF964224FF4FA710A2071
:10416000FEF709F96920FDF780FF64224FF4FA7128
:104170000120FEF700F9642240F22D210220FEF713
:10418000FAF864224FF4F5710320FEF7F4F8642284
:104190004FF4FA710420FEF7EEF864224FF4F07148
:1041A0000520FEF7E8F8642240F27F110620FEF7B2
:1041B000E2F864224FF4FA710720FEF7DCF864227B
:1041C0004FF4A0710820FEF7D6F864224FF4F8717E
:1041D0000920FEF7D0F8642240F2F7110A20FEF71A
:1041E000CAF86920FDF741FF642240F2472101200F
:1041F000FEF7C1F8642240F22D210220FEF7BBF841
:1042000064224FF4F5710320FEF7B5F864224FF4F1
:10421000FA710420FEF7AFF8642240F23121052044
:10422000FEF7A9F8642240F27F110620FEF7A3F8FA
:1042300064224FF4FA710720FEF79DF864224FF4D0
:10424000A0710820FEF797F864224FF4F871092056
:10425000FEF791F8642240F2F7110A20FEF78BF87E
:104260006920FDF702FFFA2240F23F210120FEF70C
:1042700082F8FA224FF40A710220FEF77CF8FA2243
:104280004FF4F7710320FEF776F8FA22510004206C
:10429000FEF771F8FA2240F23F210520FEF76BF895
:1042A000FA2240F2F9110620FEF765F8FA225100D1
:1042B0000720FEF760F8FA2240F2F5110820FEF719
:1042C0005AF8FA2240F2F3110920FEF754F8FA22C4
:1042D00040F2F7110A20FEF74EF8FF20FDF7C5FE69
:1042E000642240F209210120FEF745F8642240F2E1
:1042F000C1110220FEF73FF8642240F28A21032018
:10430000FEF739F864224FF4FA710420FEF733F80F
:1043100064224FF40D710520FEF72DF8642240F25F
:1043200003210620FEF727F864224FF4FA710720D4
:10433000FEF721F84FF4967240F2EB110820FEF7D9
:104340001AF864224FF4FA710920FEF714F8642277
:104350004FF4FB710A20FEF70EF86920FDF785FE89
:10436000642240F2DD110120FEF705F864224FF4CB
:10437000C1710220FDF7FFFF64224FF42A71032070
:10438000FDF7F9FF4FF496724FF4FA710420FDF730
:10439000F2FF642240F2F5110520FDF7ECFF6422E4
:1043A00040F22D210620FDF7E6FF64224FF4FA715A
:1043B0000720FDF7E0FF64224FF4FF710820FDF7AE
:1043C000DAFF642240F2F5110920FDF7D4FF6422E0
:1043D0004FF4FA710A20FDF7CEFF6920FDF745FE84
:1043E000642240F2B7110120FDF7C5FF642240F2BC
:1043F0007F110220FDF7BFFF64224FF42A710320D2
:10440000FDF7B9FF64224FF4FA710420FDF7B3FF02
:10441000642240F2A1110520FDF7ADFF642240F2B5
:104420002D210620FDF7A7FF64224FF4FA71072023
:10443000FDF7A1FF64224FF4FF710820FDF79BFFF9
:10444000642240F2F1110920FDF795FF64224FF438
:10445000FC710A20FDF78FFF6920FDF706FE10BDF5
:1044600010B5C82240F2A9110120FDF784FFC8222F
:1044700040F2F9110220FDF77EFFC8224FF4FA71D5
:104480000320FDF778FFC8224FF4F0710420FDF7F8
:1044900072FFC82240F2A9110520FDF76CFFC82267
:1044A00040F229210620FDF766FFC8224FF4F07183
:1044B0000720FDF760FFC8224FF4FD710820FDF7CB
:1044C0005AFFC8224FF4FA710920FDF754FFC822A1
:1044D0004FF4FA710A20FDF74EFFCD20FDF7C5FD20
:1044E00096224FF4DA710120FDF745FF962240F243
:1044F00003210220FDF73FFF96224FF4FF710320B6
:10450000FDF739FF96224FF4F0710420FDF733FFD9
:10451000962240F2DF110520FDF72DFF96224FF481
:10452000C8710620FDF727FF962240F212210720CE
:10453000FDF721FF962240F24F110820FDF71BFFE7
:1045400096224FF4FA710920FDF715FF96224FF4D9
:10455000FA710A20FDF70FFF9B20FDF786FD9622DA
:1045600040F247210120FDF706FF962240F22D215F
:104570000220FDF700FF96224FF4F5710320FDF7AE
:10458000FAFE96224FF4F0710420FDF7F4FE962215
:1045900040F231210520FDF7EEFE962240F27F1118
:1045A0000620FDF7E8FE96224FF4F0710720FDF794
:1045B000E2FE96224FF4A0710820FDF7DCFE962261
:1045C0004FF4FA710920FDF7D6FE96224FF4FA71E6
:1045D0000A20FDF7D0FE9B20FDF747FDC82240F2E0
:1045E0003F210120FDF7C7FEC8224FF40A710220C7
:1045F000FDF7C1FEC8224FF4F7710320FDF7BBFEA3
:10460000C8224FF4F0710420FDF7B5FEC82240F235
:104610003F210520FDF7AFFEC82240F2F911062028
:10462000FDF7A9FEC8224FF4F0710720FDF7A3FEA5
:10463000C82240F2F5110820FDF79DFEC8224FF474
:10464000FA710920FDF797FEC8224FF4FA710A208B
:10465000FDF791FECD20FDF708FD962240F20921DD
:104660000120FDF788FE96224FF4C8710220FDF765
:1046700082FE962240F299210320FDF77CFE9622CD
:1046800040F212210420FDF776FE96224FF40D71C0
:104690000520FDF770FE962240F203210620FDF76B
:1046A0006AFE96224FF4F0710720FDF764FE962211
:1046B00040F2EB110820FDF75EFE96224FF4FA71EE
:1046C0000920FDF758FE96224FF4FA710A20FDF7F3
:1046D00052FE9B20FDF7C9FC962240F2B711012043
:1046E000FDF749FE962240F27F110220FDF743FEBE
:1046F00096224FF42A710320FDF73DFE96224FF4D7
:10470000F0710420FDF737FE962240F2A11105203A
:10471000FDF731FE962240F22D210620FDF72BFEFB
:1047200096224FF4F0710720FDF725FE96224FF4F4
:10473000FF710820FDF71FFE96224FF4FA71092041
:10474000FDF719FE96224FF4FA710A20FDF713FEC9
:104750009B20FDF78AFC10BD10B5C82240F2A911BC
:104760000120FDF708FEC82240F2F9110220FDF7F2
:1047700002FEC8224FF4FA710320FDF7FCFDC822A7
:104780004FF4F0710420FDF7F6FDC82240F2A911A4
:104790000520FDF7F0FDC82240F229210620FDF793
:1047A000EAFDC8224FF4F0710720FDF7E4FDC822AE
:1047B0004FF4FD710820FDF7DEFDC82240F207210D
:1047C0000920FDF7D8FDC8224FF4FA710A20FDF741
:1047D000D2FDCD20FDF749FC96224FF4DA7101207D
:1047E000FDF7C9FD962240F203210220FDF7C3FD2B
:1047F00096224FF4FF710320FDF7BDFD96224FF482
:10480000F0710420FDF7B7FD962240F2DF1105207C
:10481000FDF7B1FD96224FF4C8710620FDF7ABFD00
:10482000962240F212210720FDF7A5FD962240F2C4
:104830004F110820FDF79FFD962240F20721092025
:10484000FDF799FD96224FF4FA710A20FDF793FDCA
:104850009B20FDF70AFC962240F247210120FDF73C
:104860008AFD962240F22D210220FDF784FD96223A
:104870004FF4F5710320FDF77EFD96224FF4F071A1
:104880000420FDF778FD962240F231210520FDF746
:1048900072FD962240F27F110620FDF76CFD9622F4
:1048A0004FF4F0710720FDF766FD96224FF4A071DA
:1048B0000820FDF760FD96224FF4FA710920FDF7FC
:1048C0005AFD96224FF4FA710A20FDF754FD9B2001
:1048D000FDF7CBFBC82240F23F210120FDF74BFD45
:1048E000C8224FF40A710220FDF745FDC8224FF49B
:1048F000F7710320FDF73FFDC8224FF4F07104204B
:10490000FDF739FDC82240F23F210520FDF733FDB8
:10491000C82240F2F9110620FDF72DFDC8224FF400
:10492000F0710720FDF727FDC82240F2F51108209D
:10493000FDF721FDC8224FF4FA710920FDF71BFD98
:10494000C8224FF4FA710A20FDF715FDCD20FDF7BE
:104950008CFB962240F209210120FDF70CFD9622E6
:104960004FF4C8710220FDF706FD962240F299210E
:104970000320FDF700FD962240F212210420FDF7EE
:10498000FAFC96224FF40D710520FDF7F4FC9622F7
:1049900040F203210620FDF7EEFC96224FF4F07161
:1049A0000720FDF7E8FC962240F2EB110820FDF706
:1049B000E2FC96224FF4FA710920FDF7DCFC962206
:1049C0004FF4FA710A20FDF7D6FC9B20FDF74DFB52
:1049D000962240F2B7110120FDF7CDFC962240F25D
:1049E0007F110220FDF7C7FC96224FF42A710320A5
:1049F000FDF7C1FC96224FF4F0710420FDF7BBFCDB
:104A0000962240F2A1110520FDF7B5FC962240F256
:104A10002D210620FDF7AFFC96224FF4F071072000
:104A2000FDF7A9FC96224FF4FF710820FDF7A3FCC7
:104A300096224FF4FA710920FDF79DFC96224FF45F
:104A4000FA710A20FDF797FC9B20FDF70EFB10BDC5
:104A500010B54FF48C7240F2A9110120FDF78BFCC8
:104A60004FF48C7240F2F9110220FDF784FC4FF4F0
:104A70008C724FF4FA710320FDF77DFC4FF48C72B9
:104A80004FF4F0710420FDF776FC4FF48C724FF474
:104A9000F0710520FDF76FFC4FF48C724FF4FF713D
:104AA0000620FDF768FC4FF48C724FF4F07107207C
:104AB000FDF761FC4FF48C724FF4FD710820FDF797
:104AC0005AFC4FF48C724FF4FA710920FDF753FC35
:104AD0004FF48C724FF4FA710A20FDF74CFC40F24F
:104AE0001D10FDF7C2FA96224FF4DA710120FDF78E
:104AF00042FC962240F203210220FDF73CFC962264
:104B00004FF4FF710320FDF736FC96224FF4F0714D
:104B10000420FDF730FC962240F2DF110520FDF75E
:104B20002AFC962240F29F110620FDF724FC9622D3
:104B30004FF4F0710720FDF71EFC962240F24F1152
:104B40000820FDF718FC96224FF4FA710920FDF7B2
:104B500012FC96224FF4FA710A20FDF70CFC9B2000
:104B6000FDF783FA962240F212210120FDF703FCA3
:104B7000962240F22D210220FDF7FDFB96224FF4F4
:104B8000F5710320FDF7F7FB96224FF4F071042036
:104B9000FDF7F1FB96224FF40C710520FDF7EBFBBE
:104BA000962240F27F110620FDF7E5FB96224FF496
:104BB000F0710720FDF7DFFB96224FF4A07108206B
:104BC000FDF7D9FB96224FF4FA710920FDF7D3FBCC
:104BD00096224FF4FA710A20FDF7CDFB9B20FDF7DA
:104BE00044FAB4224FF402710120FDF7C4FBB42251
:104BF0004FF4FF710220FDF7BEFBB4224FF4F771B2
:104C00000320FDF7B8FBB4224FF4F0710420FDF748
:104C1000B2FBB42240F23F210520FDF7ACFBB422E9
:104C200040F2F9110620FDF7A6FBB4224FF4F07113
:104C30000720FDF7A0FBB4224FF4FA710820FDF71E
:104C40009AFBB4224FF402710920FDF794FBB422C1
:104C50004FF4FA710A20FDF78EFBB920FDF705FA33
:104C6000962240F209210120FDF785FB962240F2B1
:104C70009F110220FDF77FFB962240F2992103202D
:104C8000FDF779FB96224FF4F0710420FDF773FBDA
:104C900096224FF40D710520FDF76DFB962240F230
:104CA00003210620FDF767FB96224FF4F0710720E1
:104CB000FDF761FB96224FF4F5710820FDF75BFBD1
:104CC00096224FF4FA710920FDF755FB96224FF416
:104CD000FA710A20FDF74FFB9B20FDF7C6F99622DB
:104CE0004FF4DC710120FDF746FB962240F27F1164
:104CF0000220FDF740FB96224FF42A710320FDF7B6
:104D00003AFB96224FF4F0710420FDF734FB962213
:104D10004FF4EB710520FDF72EFB962240F22D217A
:104D20000620FDF728FB96224FF4F0710720FDF7CF
:104D300022FB96224FF4FF710820FDF71CFB962200
:104D40004FF4FA710920FDF716FB96224FF4FA7121
:104D50000A20FDF710FB9B20FDF787F910BD10B569
:104D60004FF48C7240F2A9110120FDF704FB4FF4BF
:104D70008C7240F2F9110220FDF7FDFA4FF48C72AB
:104D80004FF4FA710320FDF7F6FA4FF48C724FF4EA
:104D9000F0710420FDF7EFFA4FF48C724FF4F071CC
:104DA0000520FDF7E8FA4FF48C724FF4FF710620EE
:104DB000FDF7E1FA4FF48C724FF4F0710720FDF724
:104DC000DAFA4FF48C724FF4FD710820FDF7D3FA34
:104DD0004FF48C724FF4FA710920FDF7CCFA4FF4BE
:104DE0008C724FF4FA710A20FDF7C5FA40F21D10DB
:104DF000FDF73BF996224FF4DA710120FDF7BBFA7B
:104E0000962240F203210220FDF7B5FA96224FF4D4
:104E1000FF710320FDF7AFFA96224FF4F0710420E2
:104E2000FDF7A9FA962240F2DF110520FDF7A3FA5B
:104E3000962240F29F110620FDF79DFA96224FF42C
:104E4000F0710720FDF797FA962240F24F110820E3
:104E5000FDF791FA962240F20D210920FDF78BFA19
:104E600096224FF4FA710A20FDF785FA9B20FDF790
:104E7000FCF8962240F212210120FDF77CFA9622DE
:104E800040F22D210220FDF776FA96224FF4F571BB
:104E90000320FDF770FA96224FF4F0710420FDF71D
:104EA0006AFA96224FF40C710520FDF764FA9622F7
:104EB00040F27F110620FDF75EFA96224FF4F07162
:104EC0000720FDF758FA96224FF4A0710820FDF74D
:104ED00052FA962240F20D210920FDF74CFA962253
:104EE0004FF4FA710A20FDF746FA9B20FDF7BDF852
:104EF000B4224FF402710120FDF73DFAB4224FF4C1
:104F0000FF710220FDF737FAB4224FF4F771032046
:104F1000FDF731FAB4224FF4F0710420FDF72BFABB
:104F2000B42240F23F210520FDF725FAB42240F2D9
:104F3000F9110620FDF71FFAB4224FF4F071072093
:104F4000FDF719FAB4224FF4FA710820FDF713FAAD
:104F5000B4224FF402710920FDF70DFAB4224FF488
:104F6000FA710A20FDF707FAB920FDF77EF89622BC
:104F700040F209210120FDF7FEF9962240F29F112F
:104F80000220FDF7F8F9962240F299210320FDF75F
:104F9000F2F996224FF4F0710420FDF7ECF9962215
:104FA0004FF40D710520FDF7E6F9962240F203213A
:104FB0000620FDF7E0F996224FF4F0710720FDF787
:104FC000DAF996224FF4F5710820FDF7D4F996220C
:104FD0004FF4FA710920FDF7CEF996224FF4FA71D9
:104FE0000A20FDF7C8F99B20FDF73FF896224FF401
:104FF000DC710120FDF7BFF9962240F27F110220FB
:10500000FDF7B9F996224FF42A710320FDF7B3F9A1
:1050100096224FF4F0710420FDF7ADF996224FF47B
:10502000EB710520FDF7A7F9962240F22D2106200D
:10503000FDF7A1F996224FF4F0710720FDF79BF9D7
:1050400096224FF4FF710820FDF795F996224FF450
:10505000FA710920FDF78FF996224FF4FA710A20B0
:10506000FDF789F99B20FDF700F810BD10B5C822A7
:1050700040F2A9110120FDF77EF9C82240F2F91192
:105080000220FDF778F9C8224FF4FA710320FDF7EA
:1050900072F9C8224FF4E1710420FDF76CF9C822BF
:1050A0004FF4F0710520FDF766F9C8224FF4F57151
:1050B0000620FDF760F9C8224FF4F0710720FDF7D4
:1050C0005AF9C8224FF4FD710820FDF754F9C8229F
:1050D0004FF4FA710920FDF74EF9C8224FF4FA7126
:1050E0000A20FDF748F9CD20FCF7BFFFC8224FF496
:1050F000DA710120FDF73FF9C82240F203210220B6
:10510000FDF739F9C8224FF4FF710320FDF733F999
:10511000C8224FF4E1710420FDF72DF9C82240F2B6
:10512000DF110520FDF727F9C8224FF4AF710620E3
:10513000FDF721F9C8224FF411710720FDF71BF983
:10514000C82240F2A9110820FDF715F9C8224FF432
:10515000FA710920FDF70FF9C8224FF4FA710A20FD
:10516000FDF709F9CD20FCF780FF962240F21221CD
:105170000120FDF700F9962240F22D210220FDF7D3
:10518000FAF896224FF4F5710320FDF7F4F8962211
:105190004FF4E1710420FDF7EEF896224FF40C7104
:1051A0000520FDF7E8F8962240F27F110620FDF772
:1051B000E2F896224FF4E1710720FDF7DCF8962221
:1051C0004FF4A0710820FDF7D6F896224FF4FA713B
:1051D0000920FDF7D0F896224FF4FA710A20FDF766
:1051E000CAF89B20FCF741FFC8224FF4027101204E
:1051F000FDF7C1F8C8224FF4F5710220FDF7BBF8A6
:10520000C8224FF4F7710320FDF7B5F8C8224FF418
:10521000F0710420FDF7AFF8C82240F23F210520CD
:10522000FDF7A9F8C82240F2F9110620FDF7A3F80E
:10523000C8224FF4E1710720FDF79DF8C8224FF412
:10524000FA710820FDF797F8C8224FF4027109207F
:10525000FDF791F8C8224FF4FA710A20FDF78BF898
:10526000CD20FCF702FFC82240F209210120FDF702
:1052700082F8C8224FF4AF710220FDF77CF8C822F3
:1052800040F23F210320FDF776F8C8224FF4117158
:105290000420FDF770F8C8224FF40D710520FDF7CA
:1052A0006AF8C82240F203210620FDF764F8C822FC
:1052B0004FF4E1710720FDF75EF8C8224FF4F57155
:1052C0000820FDF758F8C8224FF4FA710920FDF7BD
:1052D00052F8C8224FF4FA710A20FDF74CF8CD209D
:1052E000FCF7C3FE96224FF4DC710120FDF743F872
:1052F000962240F27F110220FDF73DF896224FF4EE
:105300002A710320FDF737F896224FF4E17104204B
:10531000FDF731F896224FF4EB710520FDF72BF8DD
:10532000962240F22D210620FDF725F896224FF413
:10533000E1710720FDF71FF896224FF4FF71082056
:10534000FDF719F896224FF4FA710920FDF713F8CA
:1053500096224FF4FA710A20FDF70DF89B20FCF716
:1053600084FE10BD10B5C82240F2A9110120FDF73E
:1053700002F8C82240F2F9110220FCF7FCFFC82213
:105380004FF4FA710320FCF7F6FFC8224FF4D271F4
:105390000420FCF7F0FFC8224FF4F0710520FCF761
:1053A000EAFFC8224FF4E1710620FCF7E4FFC822AF
:1053B0004FF4F0710720FCF7DEFFC8224FF4FD71B7
:1053C0000820FCF7D8FFC8224FF4FA710920FCF737
:1053D000D2FFC8224FF4FA710A20FCF7CCFFCD208F
:1053E000FCF743FEC8224FF4DA710120FCF7C3FF3B
:1053F000C82240F203210220FCF7BDFFC8224FF46F
:10540000FF710320FCF7B7FFC8224FF4E1710420BD
:10541000FCF7B1FFC82240F2DF110520FCF7ABFF1B
:10542000C8224FF4AF710620FCF7A5FFC8224FF445
:1054300011710720FCF79FFFC82240F2A911082034
:10544000FCF799FFC8224FF4FA710920FCF793FF8B
:10545000C8224FF4FA710A20FCF78DFFCD20FCF72B
:1054600004FEC8224FF4FA710120FCF784FFC82221
:1054700040F212210220FCF77EFFC8224FF4F571A2
:105480000320FCF778FFC8224FF4E1710420FCF7F9
:1054900072FFC8224FF40C710520FCF76CFFC82284
:1054A00040F27F110620FCF766FFC8224FF4E1713D
:1054B0000720FCF760FFC8224FF4A0710820FCF71A
:1054C0005AFFC8224FF4FA710920FCF754FFC82292
:1054D0004FF4FA710A20FCF74EFFCD20FCF7C5FD12
:1054E000C8224FF402710120FCF745FFC8224FF497
:1054F000E1710220FCF73FFFC8224FF4F77103204F
:10550000FCF739FFC8224FF4F0710420FCF733FF99
:10551000C82240F23F210520FCF72DFFC82240F2AF
:10552000F9110620FCF727FFC8224FF4D27107209B
:10553000FCF721FFC8224FF4FA710820FCF71BFF8B
:10554000C8224FF4FA710920FCF715FFC8224FF466
:10555000FA710A20FCF70FFFCD20FCF786FDC82268
:1055600040F209210120FCF706FFC8224FF4AF7179
:105570000220FCF700FFC82240F23F210320FCF785
:10558000FAFEC8224FF411710420FCF7F4FEC82281
:105590004FF40D710520FCF7EEFEC82240F2032106
:1055A0000620FCF7E8FEC8224FF4E1710720FCF763
:1055B000E2FEC8224FF4F5710820FCF7DCFEC82299
:1055C0004FF4FA710920FCF7D6FEC8224FF4FA71A5
:1055D0000A20FCF7D0FECD20FCF747FDC8224FF48F
:1055E000DC710120FCF7C7FEC82240F27F110220C7
:1055F000FCF7C1FEC8224FF42A710320FCF7BBFE62
:10560000C8224FF4E1710420FCF7B5FEC8224FF424
:10561000FA710520FCF7AFFEC8224FF4FA7106209C
:10562000FCF7A9FEC8224FF4E1710720FCF7A3FEA6
:10563000C8224FF4FF710820FCF79DFEC8224FF4EA
:10564000FA710920FCF797FEC8224FF4FA710A207C
:10565000FCF791FECD20FCF708FD10BD10B54FF40E
:105660008C7240F2A9110120FCF785FE4FF48C7278
:1056700040F2F9110220FCF77EFE4FF48C724FF4D9
:10568000FA710320FCF777FE4FF48C724FF4F0713F
:105690000420FCF770FE4FF48C724FF4F07105207B
:1056A000FCF769FE4FF48C724FF4FF710620FCF793
:1056B00062FE4FF48C724FF4F0710720FCF75BFE32
:1056C0004FF48C724FF4FD710820FCF754FE4FF438
:1056D0008C724FF4FA710920FCF74DFE4FF48C7276
:1056E0004FF4FA710A20FCF746FE40F21D10FCF759
:1056F000BCFC96224FF4DA710120FCF73CFE9622A6
:1057000040F203210220FCF736FE96224FF4FF718F
:105710000320FCF730FE96224FF4F0710420FCF7D2
:105720002AFE962240F2DF110520FCF724FE962285
:1057300040F29F110620FCF71EFE96224FF4F071F6
:105740000720FCF718FE962240F24F110820FCF7C4
:1057500012FE96224FF4FA710920FCF70CFE9622F5
:105760004FF4FA710A20FCF706FE9B20FCF77DFC43
:10577000962240F212210120FCF7FDFD962240F214
:105780002D210220FCF7F7FD96224FF4F57103203E
:10579000FCF7F1FD96224FF4F0710420FCF7EBFDCD
:1057A00096224FF40C710520FCF7E5FD962240F29D
:1057B0007F110620FCF7DFFD96224FF4F0710720E1
:1057C000FCF7D9FD96224FF4A0710820FCF7D3FD19
:1057D00096224FF4FA710920FCF7CDFD96224FF482
:1057E000FA710A20FCF7C7FD9B20FCF73EFCB422AF
:1057F0004FF402710120FCF7BEFDB4224FF4FF719B
:105800000220FCF7B8FDB4224FF4F7710320FCF737
:10581000B2FDB4224FF4F0710420FCF7ACFDB422C9
:1058200040F23F210520FCF7A6FDB42240F2F91119
:105830000620FCF7A0FDB4224FF4F0710720FCF71E
:105840009AFDB4224FF4FA710820FCF794FDB422BB
:105850004FF4FA710920FCF78EFDB4224FF4FA716F
:105860000A20FCF788FDB920FCF7FFFB962240F2E6
:1058700009210120FCF77FFD962240F29F110220B2
:10588000FCF779FD962240F299210320FCF773FD85
:1058900096224FF4F0710420FCF76DFD96224FF430
:1058A0000D710520FCF767FD962240F203210620CA
:1058B000FCF761FD96224FF4F0710720FCF75BFDC9
:1058C00096224FF4F5710820FCF755FD96224FF40F
:1058D000FA710920FCF74FFD96224FF4E1710A207E
:1058E000FCF749FD9B20FCF7C0FB96224FF4DC71CE
:1058F0000120FCF740FD962240F27F110220FCF7C8
:105900003AFD96224FF42A710320FCF734FD9622CB
:105910004FF4F0710420FCF72EFD96224FF4EB714A
:105920000520FCF728FD962240F22D210620FCF7E9
:1059300022FD96224FF4F0710720FCF71CFD962201
:105940004FF4FF710820FCF716FD96224FF4FA7110
:105950000920FCF710FD96224FF4E1710A20FCF7B4
:105960000AFD9B20FCF781FB10BD10B5C82240F258
:10597000A9110120FCF7FFFCC82240F2F911022016
:10598000FCF7F9FCC8224FF4FA710320FCF7F3FC92
:10599000C8224FF4E1710420FCF7EDFCC8224FF45B
:1059A000F0710520FCF7E7FCC8224FF4F5710620E2
:1059B000FCF7E1FCC8224FF4F0710720FCF7DBFC98
:1059C000C8224FF4FD710820FCF7D5FCC8224FF423
:1059D000FA710920FCF7CFFCC8224FF4FA710A20B3
:1059E000FCF7C9FCCD20FCF740FBC8224FF4DA716C
:1059F0000120FCF7C0FCC82240F203210220FCF782
:105A0000BAFCC8224FF4FF710320FCF7B4FCC82293
:105A10004FF4E1710420FCF7AEFCC82240F2DF1124
:105A20000520FCF7A8FCC8224FF4AF710620FCF754
:105A3000A2FCC8224FF411710720FCF79CFCC8227D
:105A400040F2A9110820FCF796FCC8224FF4077118
:105A50000920FCF790FCC8224FF4FA710A20FCF7E9
:105A60008AFCCD20FCF701FB962240F21221012096
:105A7000FCF781FC962240F22D210220FCF77BFCF2
:105A800096224FF4F5710320FCF775FC96224FF433
:105A9000E1710420FCF76FFC96224FF40C71052095
:105AA000FCF769FC962240F27F110620FCF763FCAC
:105AB00096224FF4E1710720FCF75DFC96224FF42B
:105AC000A0710820FCF757FC96224FF407710920BB
:105AD000FCF751FC96224FF4FA710A20FCF74BFCBC
